{
  "_format": "hh-sol-artifact-1",
  "contractName": "CampusCoin",
  "sourceName": "contracts/CampusCoin.sol",
  "abi": [
    {
      "inputs": [],
      "stateMutability": "nonpayable",
      "type": "constructor"
    },
    {
      "anonymous": false,
      "inputs": [
        {
          "indexed": true,
          "internalType": "address",
          "name": "owner",
          "type": "address"
        },
        {
          "indexed": true,
          "internalType": "address",
          "name": "spender",
          "type": "address"
        },
        {
          "indexed": false,
          "internalType": "uint256",
          "name": "value",
          "type": "uint256"
        }
      ],
      "name": "Approval",
      "type": "event"
    },
    {
      "anonymous": false,
      "inputs": [
        {
          "indexed": true,
          "internalType": "address",
          "name": "student",
          "type": "address"
        },
        {
          "indexed": false,
          "internalType": "uint256",
          "name": "amount",
          "type": "uint256"
        },
        {
          "indexed": false,
          "internalType": "string",
          "name": "reason",
          "type": "string"
        }
      ],
      "name": "RewardDistributed",
      "type": "event"
    },
    {
      "anonymous": false,
      "inputs": [
        {
          "indexed": true,
          "internalType": "bytes32",
          "name": "role",
          "type": "bytes32"
        },
        {
          "indexed": true,
          "internalType": "bytes32",
          "name": "previousAdminRole",
          "type": "bytes32"
        },
        {
          "indexed": true,
          "internalType": "bytes32",
          "name": "newAdminRole",
          "type": "bytes32"
        }
      ],
      "name": "RoleAdminChanged",
      "type": "event"
    },
    {
      "anonymous": false,
      "inputs": [
        {
          "indexed": true,
          "internalType": "bytes32",
          "name": "role",
          "type": "bytes32"
        },
        {
          "indexed": true,
          "internalType": "address",
          "name": "account",
          "type": "address"
        },
        {
          "indexed": true,
          "internalType": "address",
          "name": "sender",
          "type": "address"
        }
      ],
      "name": "RoleGranted",
      "type": "event"
    },
    {
      "anonymous": false,
      "inputs": [
        {
          "indexed": true,
          "internalType": "bytes32",
          "name": "role",
          "type": "bytes32"
        },
        {
          "indexed": true,
          "internalType": "address",
          "name": "account",
          "type": "address"
        },
        {
          "indexed": true,
          "internalType": "address",
          "name": "sender",
          "type": "address"
        }
      ],
      "name": "RoleRevoked",
      "type": "event"
    },
    {
      "anonymous": false,
      "inputs": [
        {
          "indexed": true,
          "internalType": "address",
          "name": "from",
          "type": "address"
        },
        {
          "indexed": true,
          "internalType": "address",
          "name": "to",
          "type": "address"
        },
        {
          "indexed": false,
          "internalType": "uint256",
          "name": "value",
          "type": "uint256"
        }
      ],
      "name": "Transfer",
      "type": "event"
    },
    {
      "inputs": [],
      "name": "DEFAULT_ADMIN_ROLE",
      "outputs": [
        {
          "internalType": "bytes32",
          "name": "",
          "type": "bytes32"
        }
      ],
      "stateMutability": "view",
      "type": "function"
    },
    {
      "inputs": [],
      "name": "FACULTY_ROLE",
      "outputs": [
        {
          "internalType": "bytes32",
          "name": "",
          "type": "bytes32"
        }
      ],
      "stateMutability": "view",
      "type": "function"
    },
    {
      "inputs": [
        {
          "internalType": "address",
          "name": "owner",
          "type": "address"
        },
        {
          "internalType": "address",
          "name": "spender",
          "type": "address"
        }
      ],
      "name": "allowance",
      "outputs": [
        {
          "internalType": "uint256",
          "name": "",
          "type": "uint256"
        }
      ],
      "stateMutability": "view",
      "type": "function"
    },
    {
      "inputs": [
        {
          "internalType": "address",
          "name": "spender",
          "type": "address"
        },
        {
          "internalType": "uint256",
          "name": "amount",
          "type": "uint256"
        }
      ],
      "name": "approve",
      "outputs": [
        {
          "internalType": "bool",
          "name": "",
          "type": "bool"
        }
      ],
      "stateMutability": "nonpayable",
      "type": "function"
    },
    {
      "inputs": [
        {
          "internalType": "address",
          "name": "account",
          "type": "address"
        }
      ],
      "name": "balanceOf",
      "outputs": [
        {
          "internalType": "uint256",
          "name": "",
          "type": "uint256"
        }
      ],
      "stateMutability": "view",
      "type": "function"
    },
    {
      "inputs": [
        {
          "internalType": "address",
          "name": "from",
          "type": "address"
        },
        {
          "internalType": "uint256",
          "name": "amount",
          "type": "uint256"
        }
      ],
      "name": "burn",
      "outputs": [],
      "stateMutability": "nonpayable",
      "type": "function"
    },
    {
      "inputs": [],
      "name": "decimals",
      "outputs": [
        {
          "internalType": "uint8",
          "name": "",
          "type": "uint8"
        }
      ],
      "stateMutability": "view",
      "type": "function"
    },
    {
      "inputs": [
        {
          "internalType": "address",
          "name": "spender",
          "type": "address"
        },
        {
          "internalType": "uint256",
          "name": "subtractedValue",
          "type": "uint256"
        }
      ],
      "name": "decreaseAllowance",
      "outputs": [
        {
          "internalType": "bool",
          "name": "",
          "type": "bool"
        }
      ],
      "stateMutability": "nonpayable",
      "type": "function"
    },
    {
      "inputs": [
        {
          "internalType": "bytes32",
          "name": "role",
          "type": "bytes32"
        }
      ],
      "name": "getRoleAdmin",
      "outputs": [
        {
          "internalType": "bytes32",
          "name": "",
          "type": "bytes32"
        }
      ],
      "stateMutability": "view",
      "type": "function"
    },
    {
      "inputs": [
        {
          "internalType": "bytes32",
          "name": "role",
          "type": "bytes32"
        },
        {
          "internalType": "address",
          "name": "account",
          "type": "address"
        }
      ],
      "name": "grantRole",
      "outputs": [],
      "stateMutability": "nonpayable",
      "type": "function"
    },
    {
      "inputs": [
        {
          "internalType": "bytes32",
          "name": "role",
          "type": "bytes32"
        },
        {
          "internalType": "address",
          "name": "account",
          "type": "address"
        }
      ],
      "name": "hasRole",
      "outputs": [
        {
          "internalType": "bool",
          "name": "",
          "type": "bool"
        }
      ],
      "stateMutability": "view",
      "type": "function"
    },
    {
      "inputs": [
        {
          "internalType": "address",
          "name": "spender",
          "type": "address"
        },
        {
          "internalType": "uint256",
          "name": "addedValue",
          "type": "uint256"
        }
      ],
      "name": "increaseAllowance",
      "outputs": [
        {
          "internalType": "bool",
          "name": "",
          "type": "bool"
        }
      ],
      "stateMutability": "nonpayable",
      "type": "function"
    },
    {
      "inputs": [
        {
          "internalType": "address",
          "name": "to",
          "type": "address"
        },
        {
          "internalType": "uint256",
          "name": "amount",
          "type": "uint256"
        }
      ],
      "name": "mint",
      "outputs": [],
      "stateMutability": "nonpayable",
      "type": "function"
    },
    {
      "inputs": [],
      "name": "name",
      "outputs": [
        {
          "internalType": "string",
          "name": "",
          "type": "string"
        }
      ],
      "stateMutability": "view",
      "type": "function"
    },
    {
      "inputs": [
        {
          "internalType": "bytes32",
          "name": "role",
          "type": "bytes32"
        },
        {
          "internalType": "address",
          "name": "account",
          "type": "address"
        }
      ],
      "name": "renounceRole",
      "outputs": [],
      "stateMutability": "nonpayable",
      "type": "function"
    },
    {
      "inputs": [
        {
          "internalType": "bytes32",
          "name": "role",
          "type": "bytes32"
        },
        {
          "internalType": "address",
          "name": "account",
          "type": "address"
        }
      ],
      "name": "revokeRole",
      "outputs": [],
      "stateMutability": "nonpayable",
      "type": "function"
    },
    {
      "inputs": [
        {
          "internalType": "address",
          "name": "student",
          "type": "address"
        },
        {
          "internalType": "uint256",
          "name": "amount",
          "type": "uint256"
        },
        {
          "internalType": "string",
          "name": "reason",
          "type": "string"
        }
      ],
      "name": "rewardStudent",
      "outputs": [],
      "stateMutability": "nonpayable",
      "type": "function"
    },
    {
      "inputs": [
        {
          "internalType": "bytes4",
          "name": "interfaceId",
          "type": "bytes4"
        }
      ],
      "name": "supportsInterface",
      "outputs": [
        {
          "internalType": "bool",
          "name": "",
          "type": "bool"
        }
      ],
      "stateMutability": "view",
      "type": "function"
    },
    {
      "inputs": [],
      "name": "symbol",
      "outputs": [
        {
          "internalType": "string",
          "name": "",
          "type": "string"
        }
      ],
      "stateMutability": "view",
      "type": "function"
    },
    {
      "inputs": [],
      "name": "totalSupply",
      "outputs": [
        {
          "internalType": "uint256",
          "name": "",
          "type": "uint256"
        }
      ],
      "stateMutability": "view",
      "type": "function"
    },
    {
      "inputs": [
        {
          "internalType": "address",
          "name": "to",
          "type": "address"
        },
        {
          "internalType": "uint256",
          "name": "amount",
          "type": "uint256"
        }
      ],
      "name": "transfer",
      "outputs": [
        {
          "internalType": "bool",
          "name": "",
          "type": "bool"
        }
      ],
      "stateMutability": "nonpayable",
      "type": "function"
    },
    {
      "inputs": [
        {
          "internalType": "address",
          "name": "from",
          "type": "address"
        },
        {
          "internalType": "address",
          "name": "to",
          "type": "address"
        },
        {
          "internalType": "uint256",
          "name": "amount",
          "type": "uint256"
        }
      ],
      "name": "transferFrom",
      "outputs": [
        {
          "internalType": "bool",
          "name": "",
          "type": "bool"
        }
      ],
      "stateMutability": "nonpayable",
      "type": "function"
    }
  ],
  "bytecode": "0x60806040523480156200001157600080fd5b506040518060400160405280600a81526020017f43616d707573436f696e000000000000000000000000000000000000000000008152506040518060400160405280600481526020017f43414d500000000000000000000000000000000000000000000000000000000081525081600390816200008f9190620004d0565b508060049081620000a19190620004d0565b505050620000b96000801b33620000f160201b60201c565b620000eb7ff3f9cfff7b46f415da5a492b1718971da203f87c6aae9299e7b408eb83ef8bee33620000f160201b60201c565b620005b7565b620001038282620001e360201b60201c565b620001df5760016005600084815260200190815260200160002060000160008373ffffffffffffffffffffffffffffffffffffffff1673ffffffffffffffffffffffffffffffffffffffff16815260200190815260200160002060006101000a81548160ff021916908315150217905550620001846200024e60201b60201c565b73ffffffffffffffffffffffffffffffffffffffff168173ffffffffffffffffffffffffffffffffffffffff16837f2f8788117e7eff1d82e926ec794901d17c78024a50270940304540a733656f0d60405160405180910390a45b5050565b60006005600084815260200190815260200160002060000160008373ffffffffffffffffffffffffffffffffffffffff1673ffffffffffffffffffffffffffffffffffffffff16815260200190815260200160002060009054906101000a900460ff16905092915050565b600033905090565b600081519050919050565b7f4e487b7100000000000000000000000000000000000000000000000000000000600052604160045260246000fd5b7f4e487b7100000000000000000000000000000000000000000000000000000000600052602260045260246000fd5b60006002820490506001821680620002d857607f821691505b602082108103620002ee57620002ed62000290565b5b50919050565b60008190508160005260206000209050919050565b60006020601f8301049050919050565b600082821b905092915050565b600060088302620003587fffffffffffffffffffffffffffffffffffffffffffffffffffffffffffffffff8262000319565b62000364868362000319565b95508019841693508086168417925050509392505050565b6000819050919050565b6000819050919050565b6000620003b1620003ab620003a5846200037c565b62000386565b6200037c565b9050919050565b6000819050919050565b620003cd8362000390565b620003e5620003dc82620003b8565b84845462000326565b825550505050565b600090565b620003fc620003ed565b62000409818484620003c2565b505050565b5b81811015620004315762000425600082620003f2565b6001810190506200040f565b5050565b601f82111562000480576200044a81620002f4565b620004558462000309565b8101602085101562000465578190505b6200047d620004748562000309565b8301826200040e565b50505b505050565b600082821c905092915050565b6000620004a56000198460080262000485565b1980831691505092915050565b6000620004c0838362000492565b9150826002028217905092915050565b620004db8262000256565b67ffffffffffffffff811115620004f757620004f662000261565b5b620005038254620002bf565b6200051082828562000435565b600060209050601f83116001811462000548576000841562000533578287015190505b6200053f8582620004b2565b865550620005af565b601f1984166200055886620002f4565b60005b8281101562000582578489015182556001820191506020850194506020810190506200055b565b86831015620005a257848901516200059e601f89168262000492565b8355505b6001600288020188555050505b505050505050565b6126b080620005c76000396000f3fe608060405234801561001057600080fd5b50600436106101425760003560e01c80636fe3ceb8116100b8578063a217fddf1161007c578063a217fddf1461039d578063a457c2d7146103bb578063a9059cbb146103eb578063b69bee541461041b578063d547741f14610437578063dd62ed3e1461045357610142565b80636fe3ceb8146102e557806370a082311461030357806391d148541461033357806395d89b41146103635780639dc29fac1461038157610142565b8063248a9ca31161010a578063248a9ca3146102135780632f2ff15d14610243578063313ce5671461025f57806336568abe1461027d578063395093511461029957806340c10f19146102c957610142565b806301ffc9a71461014757806306fdde0314610177578063095ea7b31461019557806318160ddd146101c557806323b872dd146101e3575b600080fd5b610161600480360381019061015c91906117fe565b610483565b60405161016e9190611846565b60405180910390f35b61017f6104fd565b60405161018c91906118f1565b60405180910390f35b6101af60048036038101906101aa91906119a7565b61058f565b6040516101bc9190611846565b60405180910390f35b6101cd6105b2565b6040516101da91906119f6565b60405180910390f35b6101fd60048036038101906101f89190611a11565b6105bc565b60405161020a9190611846565b60405180910390f35b61022d60048036038101906102289190611a9a565b6105eb565b60405161023a9190611ad6565b60405180910390f35b61025d60048036038101906102589190611af1565b61060b565b005b61026761062c565b6040516102749190611b4d565b60405180910390f35b61029760048036038101906102929190611af1565b610635565b005b6102b360048036038101906102ae91906119a7565b6106b8565b6040516102c09190611846565b60405180910390f35b6102e360048036038101906102de91906119a7565b6106ef565b005b6102ed61070b565b6040516102fa9190611ad6565b60405180910390f35b61031d60048036038101906103189190611b68565b61072f565b60405161032a91906119f6565b60405180910390f35b61034d60048036038101906103489190611af1565b610777565b60405161035a9190611846565b60405180910390f35b61036b6107e2565b60405161037891906118f1565b60405180910390f35b61039b600480360381019061039691906119a7565b610874565b005b6103a5610890565b6040516103b29190611ad6565b60405180910390f35b6103d560048036038101906103d091906119a7565b610897565b6040516103e29190611846565b60405180910390f35b610405600480360381019061040091906119a7565b61090e565b6040516104129190611846565b60405180910390f35b61043560048036038101906104309190611cca565b610931565b005b610451600480360381019061044c9190611af1565b6109bb565b005b61046d60048036038101906104689190611d39565b6109dc565b60405161047a91906119f6565b60405180910390f35b60007f7965db0b000000000000000000000000000000000000000000000000000000007bffffffffffffffffffffffffffffffffffffffffffffffffffffffff1916827bffffffffffffffffffffffffffffffffffffffffffffffffffffffff191614806104f657506104f582610a63565b5b9050919050565b60606003805461050c90611da8565b80601f016020809104026020016040519081016040528092919081815260200182805461053890611da8565b80156105855780601f1061055a57610100808354040283529160200191610585565b820191906000526020600020905b81548152906001019060200180831161056857829003601f168201915b5050505050905090565b60008061059a610acd565b90506105a7818585610ad5565b600191505092915050565b6000600254905090565b6000806105c7610acd565b90506105d4858285610c9e565b6105df858585610d2a565b60019150509392505050565b600060056000838152602001908152602001600020600101549050919050565b610614826105eb565b61061d81610fa0565b6106278383610fb4565b505050565b60006012905090565b61063d610acd565b73ffffffffffffffffffffffffffffffffffffffff168173ffffffffffffffffffffffffffffffffffffffff16146106aa576040517f08c379a00000000000000000000000000000000000000000000000000000000081526004016106a190611e4b565b60405180910390fd5b6106b48282611095565b5050565b6000806106c3610acd565b90506106e48185856106d585896109dc565b6106df9190611e9a565b610ad5565b600191505092915050565b6000801b6106fc81610fa0565b6107068383611177565b505050565b7ff3f9cfff7b46f415da5a492b1718971da203f87c6aae9299e7b408eb83ef8bee81565b60008060008373ffffffffffffffffffffffffffffffffffffffff1673ffffffffffffffffffffffffffffffffffffffff168152602001908152602001600020549050919050565b60006005600084815260200190815260200160002060000160008373ffffffffffffffffffffffffffffffffffffffff1673ffffffffffffffffffffffffffffffffffffffff16815260200190815260200160002060009054906101000a900460ff16905092915050565b6060600480546107f190611da8565b80601f016020809104026020016040519081016040528092919081815260200182805461081d90611da8565b801561086a5780601f1061083f5761010080835404028352916020019161086a565b820191906000526020600020905b81548152906001019060200180831161084d57829003601f168201915b5050505050905090565b6000801b61088181610fa0565b61088b83836112cd565b505050565b6000801b81565b6000806108a2610acd565b905060006108b082866109dc565b9050838110156108f5576040517f08c379a00000000000000000000000000000000000000000000000000000000081526004016108ec90611f40565b60405180910390fd5b6109028286868403610ad5565b60019250505092915050565b600080610919610acd565b9050610926818585610d2a565b600191505092915050565b7ff3f9cfff7b46f415da5a492b1718971da203f87c6aae9299e7b408eb83ef8bee61095b81610fa0565b6109658484611177565b8373ffffffffffffffffffffffffffffffffffffffff167f49649141d16971a88c3cfdd73fec34babb1cf163cf8b804c8f537a023c6ce50684846040516109ad929190611f60565b60405180910390a250505050565b6109c4826105eb565b6109cd81610fa0565b6109d78383611095565b505050565b6000600160008473ffffffffffffffffffffffffffffffffffffffff1673ffffffffffffffffffffffffffffffffffffffff16815260200190815260200160002060008373ffffffffffffffffffffffffffffffffffffffff1673ffffffffffffffffffffffffffffffffffffffff16815260200190815260200160002054905092915050565b60007f01ffc9a7000000000000000000000000000000000000000000000000000000007bffffffffffffffffffffffffffffffffffffffffffffffffffffffff1916827bffffffffffffffffffffffffffffffffffffffffffffffffffffffff1916149050919050565b600033905090565b600073ffffffffffffffffffffffffffffffffffffffff168373ffffffffffffffffffffffffffffffffffffffff1603610b44576040517f08c379a0000000000000000000000000000000000000000000000000000000008152600401610b3b90612002565b60405180910390fd5b600073ffffffffffffffffffffffffffffffffffffffff168273ffffffffffffffffffffffffffffffffffffffff1603610bb3576040517f08c379a0000000000000000000000000000000000000000000000000000000008152600401610baa90612094565b60405180910390fd5b80600160008573ffffffffffffffffffffffffffffffffffffffff1673ffffffffffffffffffffffffffffffffffffffff16815260200190815260200160002060008473ffffffffffffffffffffffffffffffffffffffff1673ffffffffffffffffffffffffffffffffffffffff168152602001908152602001600020819055508173ffffffffffffffffffffffffffffffffffffffff168373ffffffffffffffffffffffffffffffffffffffff167f8c5be1e5ebec7d5bd14f71427d1e84f3dd0314c0f7b2291e5b200ac8c7c3b92583604051610c9191906119f6565b60405180910390a3505050565b6000610caa84846109dc565b90507fffffffffffffffffffffffffffffffffffffffffffffffffffffffffffffffff8114610d245781811015610d16576040517f08c379a0000000000000000000000000000000000000000000000000000000008152600401610d0d90612100565b60405180910390fd5b610d238484848403610ad5565b5b50505050565b600073ffffffffffffffffffffffffffffffffffffffff168373ffffffffffffffffffffffffffffffffffffffff1603610d99576040517f08c379a0000000000000000000000000000000000000000000000000000000008152600401610d9090612192565b60405180910390fd5b600073ffffffffffffffffffffffffffffffffffffffff168273ffffffffffffffffffffffffffffffffffffffff1603610e08576040517f08c379a0000000000000000000000000000000000000000000000000000000008152600401610dff90612224565b60405180910390fd5b610e1383838361149a565b60008060008573ffffffffffffffffffffffffffffffffffffffff1673ffffffffffffffffffffffffffffffffffffffff16815260200190815260200160002054905081811015610e99576040517f08c379a0000000000000000000000000000000000000000000000000000000008152600401610e90906122b6565b60405180910390fd5b8181036000808673ffffffffffffffffffffffffffffffffffffffff1673ffffffffffffffffffffffffffffffffffffffff16815260200190815260200160002081905550816000808573ffffffffffffffffffffffffffffffffffffffff1673ffffffffffffffffffffffffffffffffffffffff168152602001908152602001600020600082825401925050819055508273ffffffffffffffffffffffffffffffffffffffff168473ffffffffffffffffffffffffffffffffffffffff167fddf252ad1be2c89b69c2b068fc378daa952ba7f163c4a11628f55a4df523b3ef84604051610f8791906119f6565b60405180910390a3610f9a84848461149f565b50505050565b610fb181610fac610acd565b6114a4565b50565b610fbe8282610777565b6110915760016005600084815260200190815260200160002060000160008373ffffffffffffffffffffffffffffffffffffffff1673ffffffffffffffffffffffffffffffffffffffff16815260200190815260200160002060006101000a81548160ff021916908315150217905550611036610acd565b73ffffffffffffffffffffffffffffffffffffffff168173ffffffffffffffffffffffffffffffffffffffff16837f2f8788117e7eff1d82e926ec794901d17c78024a50270940304540a733656f0d60405160405180910390a45b5050565b61109f8282610777565b156111735760006005600084815260200190815260200160002060000160008373ffffffffffffffffffffffffffffffffffffffff1673ffffffffffffffffffffffffffffffffffffffff16815260200190815260200160002060006101000a81548160ff021916908315150217905550611118610acd565b73ffffffffffffffffffffffffffffffffffffffff168173ffffffffffffffffffffffffffffffffffffffff16837ff6391f5c32d9c69d2a47ea670b442974b53935d1edc7fd64eb21e047a839171b60405160405180910390a45b5050565b600073ffffffffffffffffffffffffffffffffffffffff168273ffffffffffffffffffffffffffffffffffffffff16036111e6576040517f08c379a00000000000000000000000000000000000000000000000000000000081526004016111dd90612322565b60405180910390fd5b6111f26000838361149a565b80600260008282546112049190611e9a565b92505081905550806000808473ffffffffffffffffffffffffffffffffffffffff1673ffffffffffffffffffffffffffffffffffffffff168152602001908152602001600020600082825401925050819055508173ffffffffffffffffffffffffffffffffffffffff16600073ffffffffffffffffffffffffffffffffffffffff167fddf252ad1be2c89b69c2b068fc378daa952ba7f163c4a11628f55a4df523b3ef836040516112b591906119f6565b60405180910390a36112c96000838361149f565b5050565b600073ffffffffffffffffffffffffffffffffffffffff168273ffffffffffffffffffffffffffffffffffffffff160361133c576040517f08c379a0000000000000000000000000000000000000000000000000000000008152600401611333906123b4565b60405180910390fd5b6113488260008361149a565b60008060008473ffffffffffffffffffffffffffffffffffffffff1673ffffffffffffffffffffffffffffffffffffffff168152602001908152602001600020549050818110156113ce576040517f08c379a00000000000000000000000000000000000000000000000000000000081526004016113c590612446565b60405180910390fd5b8181036000808573ffffffffffffffffffffffffffffffffffffffff1673ffffffffffffffffffffffffffffffffffffffff1681526020019081526020016000208190555081600260008282540392505081905550600073ffffffffffffffffffffffffffffffffffffffff168373ffffffffffffffffffffffffffffffffffffffff167fddf252ad1be2c89b69c2b068fc378daa952ba7f163c4a11628f55a4df523b3ef8460405161148191906119f6565b60405180910390a36114958360008461149f565b505050565b505050565b505050565b6114ae8282610777565b611525576114bb81611529565b6114c98360001c6020611556565b6040516020016114da92919061253a565b6040516020818303038152906040526040517f08c379a000000000000000000000000000000000000000000000000000000000815260040161151c91906118f1565b60405180910390fd5b5050565b606061154f8273ffffffffffffffffffffffffffffffffffffffff16601460ff16611556565b9050919050565b6060600060028360026115699190612574565b6115739190611e9a565b67ffffffffffffffff81111561158c5761158b611b9f565b5b6040519080825280601f01601f1916602001820160405280156115be5781602001600182028036833780820191505090505b5090507f3000000000000000000000000000000000000000000000000000000000000000816000815181106115f6576115f56125b6565b5b60200101907effffffffffffffffffffffffffffffffffffffffffffffffffffffffffffff1916908160001a9053507f78000000000000000000000000000000000000000000000000000000000000008160018151811061165a576116596125b6565b5b60200101907effffffffffffffffffffffffffffffffffffffffffffffffffffffffffffff1916908160001a9053506000600184600261169a9190612574565b6116a49190611e9a565b90505b6001811115611744577f3031323334353637383961626364656600000000000000000000000000000000600f8616601081106116e6576116e56125b6565b5b1a60f81b8282815181106116fd576116fc6125b6565b5b60200101907effffffffffffffffffffffffffffffffffffffffffffffffffffffffffffff1916908160001a905350600485901c94508061173d906125e5565b90506116a7565b5060008414611788576040517f08c379a000000000000000000000000000000000000000000000000000000000815260040161177f9061265a565b60405180910390fd5b8091505092915050565b6000604051905090565b600080fd5b600080fd5b60007fffffffff0000000000000000000000000000000000000000000000000000000082169050919050565b6117db816117a6565b81146117e657600080fd5b50565b6000813590506117f8816117d2565b92915050565b6000602082840312156118145761181361179c565b5b6000611822848285016117e9565b91505092915050565b60008115159050919050565b6118408161182b565b82525050565b600060208201905061185b6000830184611837565b92915050565b600081519050919050565b600082825260208201905092915050565b60005b8381101561189b578082015181840152602081019050611880565b60008484015250505050565b6000601f19601f8301169050919050565b60006118c382611861565b6118cd818561186c565b93506118dd81856020860161187d565b6118e6816118a7565b840191505092915050565b6000602082019050818103600083015261190b81846118b8565b905092915050565b600073ffffffffffffffffffffffffffffffffffffffff82169050919050565b600061193e82611913565b9050919050565b61194e81611933565b811461195957600080fd5b50565b60008135905061196b81611945565b92915050565b6000819050919050565b61198481611971565b811461198f57600080fd5b50565b6000813590506119a18161197b565b92915050565b600080604083850312156119be576119bd61179c565b5b60006119cc8582860161195c565b92505060206119dd85828601611992565b9150509250929050565b6119f081611971565b82525050565b6000602082019050611a0b60008301846119e7565b92915050565b600080600060608486031215611a2a57611a2961179c565b5b6000611a388682870161195c565b9350506020611a498682870161195c565b9250506040611a5a86828701611992565b9150509250925092565b6000819050919050565b611a7781611a64565b8114611a8257600080fd5b50565b600081359050611a9481611a6e565b92915050565b600060208284031215611ab057611aaf61179c565b5b6000611abe84828501611a85565b91505092915050565b611ad081611a64565b82525050565b6000602082019050611aeb6000830184611ac7565b92915050565b60008060408385031215611b0857611b0761179c565b5b6000611b1685828601611a85565b9250506020611b278582860161195c565b9150509250929050565b600060ff82169050919050565b611b4781611b31565b82525050565b6000602082019050611b626000830184611b3e565b92915050565b600060208284031215611b7e57611b7d61179c565b5b6000611b8c8482850161195c565b91505092915050565b600080fd5b600080fd5b7f4e487b7100000000000000000000000000000000000000000000000000000000600052604160045260246000fd5b611bd7826118a7565b810181811067ffffffffffffffff82111715611bf657611bf5611b9f565b5b80604052505050565b6000611c09611792565b9050611c158282611bce565b919050565b600067ffffffffffffffff821115611c3557611c34611b9f565b5b611c3e826118a7565b9050602081019050919050565b82818337600083830152505050565b6000611c6d611c6884611c1a565b611bff565b905082815260208101848484011115611c8957611c88611b9a565b5b611c94848285611c4b565b509392505050565b600082601f830112611cb157611cb0611b95565b5b8135611cc1848260208601611c5a565b91505092915050565b600080600060608486031215611ce357611ce261179c565b5b6000611cf18682870161195c565b9350506020611d0286828701611992565b925050604084013567ffffffffffffffff811115611d2357611d226117a1565b5b611d2f86828701611c9c565b9150509250925092565b60008060408385031215611d5057611d4f61179c565b5b6000611d5e8582860161195c565b9250506020611d6f8582860161195c565b9150509250929050565b7f4e487b7100000000000000000000000000000000000000000000000000000000600052602260045260246000fd5b60006002820490506001821680611dc057607f821691505b602082108103611dd357611dd2611d79565b5b50919050565b7f416363657373436f6e74726f6c3a2063616e206f6e6c792072656e6f756e636560008201527f20726f6c657320666f722073656c660000000000000000000000000000000000602082015250565b6000611e35602f8361186c565b9150611e4082611dd9565b604082019050919050565b60006020820190508181036000830152611e6481611e28565b9050919050565b7f4e487b7100000000000000000000000000000000000000000000000000000000600052601160045260246000fd5b6000611ea582611971565b9150611eb083611971565b9250828201905080821115611ec857611ec7611e6b565b5b92915050565b7f45524332303a2064656372656173656420616c6c6f77616e63652062656c6f7760008201527f207a65726f000000000000000000000000000000000000000000000000000000602082015250565b6000611f2a60258361186c565b9150611f3582611ece565b604082019050919050565b60006020820190508181036000830152611f5981611f1d565b9050919050565b6000604082019050611f7560008301856119e7565b8181036020830152611f8781846118b8565b90509392505050565b7f45524332303a20617070726f76652066726f6d20746865207a65726f2061646460008201527f7265737300000000000000000000000000000000000000000000000000000000602082015250565b6000611fec60248361186c565b9150611ff782611f90565b604082019050919050565b6000602082019050818103600083015261201b81611fdf565b9050919050565b7f45524332303a20617070726f766520746f20746865207a65726f20616464726560008201527f7373000000000000000000000000000000000000000000000000000000000000602082015250565b600061207e60228361186c565b915061208982612022565b604082019050919050565b600060208201905081810360008301526120ad81612071565b9050919050565b7f45524332303a20696e73756666696369656e7420616c6c6f77616e6365000000600082015250565b60006120ea601d8361186c565b91506120f5826120b4565b602082019050919050565b60006020820190508181036000830152612119816120dd565b9050919050565b7f45524332303a207472616e736665722066726f6d20746865207a65726f20616460008201527f6472657373000000000000000000000000000000000000000000000000000000602082015250565b600061217c60258361186c565b915061218782612120565b604082019050919050565b600060208201905081810360008301526121ab8161216f565b9050919050565b7f45524332303a207472616e7366657220746f20746865207a65726f206164647260008201527f6573730000000000000000000000000000000000000000000000000000000000602082015250565b600061220e60238361186c565b9150612219826121b2565b604082019050919050565b6000602082019050818103600083015261223d81612201565b9050919050565b7f45524332303a207472616e7366657220616d6f756e742065786365656473206260008201527f616c616e63650000000000000000000000000000000000000000000000000000602082015250565b60006122a060268361186c565b91506122ab82612244565b604082019050919050565b600060208201905081810360008301526122cf81612293565b9050919050565b7f45524332303a206d696e7420746f20746865207a65726f206164647265737300600082015250565b600061230c601f8361186c565b9150612317826122d6565b602082019050919050565b6000602082019050818103600083015261233b816122ff565b9050919050565b7f45524332303a206275726e2066726f6d20746865207a65726f2061646472657360008201527f7300000000000000000000000000000000000000000000000000000000000000602082015250565b600061239e60218361186c565b91506123a982612342565b604082019050919050565b600060208201905081810360008301526123cd81612391565b9050919050565b7f45524332303a206275726e20616d6f756e7420657863656564732062616c616e60008201527f6365000000000000000000000000000000000000000000000000000000000000602082015250565b600061243060228361186c565b915061243b826123d4565b604082019050919050565b6000602082019050818103600083015261245f81612423565b9050919050565b600081905092915050565b7f416363657373436f6e74726f6c3a206163636f756e7420000000000000000000600082015250565b60006124a7601783612466565b91506124b282612471565b601782019050919050565b60006124c882611861565b6124d28185612466565b93506124e281856020860161187d565b80840191505092915050565b7f206973206d697373696e6720726f6c6520000000000000000000000000000000600082015250565b6000612524601183612466565b915061252f826124ee565b601182019050919050565b60006125458261249a565b915061255182856124bd565b915061255c82612517565b915061256882846124bd565b91508190509392505050565b600061257f82611971565b915061258a83611971565b925082820261259881611971565b915082820484148315176125af576125ae611e6b565b5b5092915050565b7f4e487b7100000000000000000000000000000000000000000000000000000000600052603260045260246000fd5b60006125f082611971565b91506000820361260357612602611e6b565b5b600182039050919050565b7f537472696e67733a20686578206c656e67746820696e73756666696369656e74600082015250565b600061264460208361186c565b915061264f8261260e565b602082019050919050565b6000602082019050818103600083015261267381612637565b905091905056fea26469706673582212201b725c21b2d81d5b3d280f02094073f9c1279b58807cca4aa8d19833139c980064736f6c63430008130033",
  "linkReferences": {},
  "deployedLinkReferences": {}
}