{
  "_format": "hh-sol-artifact-1",
  "contractName": "CampusCoin",
  "sourceName": "contracts/CampusCoin.sol",
  "abi": [
    {
      "inputs": [],
      "stateMutability": "nonpayable",
      "type": "constructor"
    },
    {
      "anonymous": false,
      "inputs": [
        {
          "indexed": true,
          "internalType": "address",
          "name": "owner",
          "type": "address"
        },
        {
          "indexed": true,
          "internalType": "address",
          "name": "spender",
          "type": "address"
        },
        {
          "indexed": false,
          "internalType": "uint256",
          "name": "value",
          "type": "uint256"
        }
      ],
      "name": "Approval",
      "type": "event"
    },
    {
      "anonymous": false,
      "inputs": [
        {
          "indexed": true,
          "internalType": "address",
          "name": "from",
          "type": "address"
        },
        {
          "indexed": true,
          "internalType": "address",
          "name": "to",
          "type": "address"
        },
        {
          "indexed": false,
          "internalType": "uint256",
          "name": "amount",
          "type": "uint256"
        },
        {
          "indexed": false,
          "internalType": "string",
          "name": "reason",
          "type": "string"
        }
      ],
      "name": "RewardPaid",
      "type": "event"
    },
    {
      "anonymous": false,
      "inputs": [
        {
          "indexed": true,
          "internalType": "bytes32",
          "name": "role",
          "type": "bytes32"
        },
        {
          "indexed": true,
          "internalType": "bytes32",
          "name": "previousAdminRole",
          "type": "bytes32"
        },
        {
          "indexed": true,
          "internalType": "bytes32",
          "name": "newAdminRole",
          "type": "bytes32"
        }
      ],
      "name": "RoleAdminChanged",
      "type": "event"
    },
    {
      "anonymous": false,
      "inputs": [
        {
          "indexed": true,
          "internalType": "bytes32",
          "name": "role",
          "type": "bytes32"
        },
        {
          "indexed": true,
          "internalType": "address",
          "name": "account",
          "type": "address"
        },
        {
          "indexed": true,
          "internalType": "address",
          "name": "sender",
          "type": "address"
        }
      ],
      "name": "RoleGranted",
      "type": "event"
    },
    {
      "anonymous": false,
      "inputs": [
        {
          "indexed": true,
          "internalType": "bytes32",
          "name": "role",
          "type": "bytes32"
        },
        {
          "indexed": true,
          "internalType": "address",
          "name": "account",
          "type": "address"
        },
        {
          "indexed": true,
          "internalType": "address",
          "name": "sender",
          "type": "address"
        }
      ],
      "name": "RoleRevoked",
      "type": "event"
    },
    {
      "anonymous": false,
      "inputs": [
        {
          "indexed": true,
          "internalType": "address",
          "name": "from",
          "type": "address"
        },
        {
          "indexed": true,
          "internalType": "address",
          "name": "to",
          "type": "address"
        },
        {
          "indexed": false,
          "internalType": "uint256",
          "name": "value",
          "type": "uint256"
        }
      ],
      "name": "Transfer",
      "type": "event"
    },
    {
      "inputs": [],
      "name": "DEFAULT_ADMIN_ROLE",
      "outputs": [
        {
          "internalType": "bytes32",
          "name": "",
          "type": "bytes32"
        }
      ],
      "stateMutability": "view",
      "type": "function"
    },
    {
      "inputs": [],
      "name": "FACULTY_ROLE",
      "outputs": [
        {
          "internalType": "bytes32",
          "name": "",
          "type": "bytes32"
        }
      ],
      "stateMutability": "view",
      "type": "function"
    },
    {
      "inputs": [
        {
          "internalType": "address",
          "name": "owner",
          "type": "address"
        },
        {
          "internalType": "address",
          "name": "spender",
          "type": "address"
        }
      ],
      "name": "allowance",
      "outputs": [
        {
          "internalType": "uint256",
          "name": "",
          "type": "uint256"
        }
      ],
      "stateMutability": "view",
      "type": "function"
    },
    {
      "inputs": [
        {
          "internalType": "address",
          "name": "spender",
          "type": "address"
        },
        {
          "internalType": "uint256",
          "name": "amount",
          "type": "uint256"
        }
      ],
      "name": "approve",
      "outputs": [
        {
          "internalType": "bool",
          "name": "",
          "type": "bool"
        }
      ],
      "stateMutability": "nonpayable",
      "type": "function"
    },
    {
      "inputs": [
        {
          "internalType": "address",
          "name": "account",
          "type": "address"
        }
      ],
      "name": "balanceOf",
      "outputs": [
        {
          "internalType": "uint256",
          "name": "",
          "type": "uint256"
        }
      ],
      "stateMutability": "view",
      "type": "function"
    },
    {
      "inputs": [],
      "name": "decimals",
      "outputs": [
        {
          "internalType": "uint8",
          "name": "",
          "type": "uint8"
        }
      ],
      "stateMutability": "view",
      "type": "function"
    },
    {
      "inputs": [
        {
          "internalType": "address",
          "name": "spender",
          "type": "address"
        },
        {
          "internalType": "uint256",
          "name": "subtractedValue",
          "type": "uint256"
        }
      ],
      "name": "decreaseAllowance",
      "outputs": [
        {
          "internalType": "bool",
          "name": "",
          "type": "bool"
        }
      ],
      "stateMutability": "nonpayable",
      "type": "function"
    },
    {
      "inputs": [
        {
          "internalType": "bytes32",
          "name": "role",
          "type": "bytes32"
        }
      ],
      "name": "getRoleAdmin",
      "outputs": [
        {
          "internalType": "bytes32",
          "name": "",
          "type": "bytes32"
        }
      ],
      "stateMutability": "view",
      "type": "function"
    },
    {
      "inputs": [
        {
          "internalType": "bytes32",
          "name": "role",
          "type": "bytes32"
        },
        {
          "internalType": "address",
          "name": "account",
          "type": "address"
        }
      ],
      "name": "grantRole",
      "outputs": [],
      "stateMutability": "nonpayable",
      "type": "function"
    },
    {
      "inputs": [
        {
          "internalType": "bytes32",
          "name": "role",
          "type": "bytes32"
        },
        {
          "internalType": "address",
          "name": "account",
          "type": "address"
        }
      ],
      "name": "hasRole",
      "outputs": [
        {
          "internalType": "bool",
          "name": "",
          "type": "bool"
        }
      ],
      "stateMutability": "view",
      "type": "function"
    },
    {
      "inputs": [
        {
          "internalType": "address",
          "name": "spender",
          "type": "address"
        },
        {
          "internalType": "uint256",
          "name": "addedValue",
          "type": "uint256"
        }
      ],
      "name": "increaseAllowance",
      "outputs": [
        {
          "internalType": "bool",
          "name": "",
          "type": "bool"
        }
      ],
      "stateMutability": "nonpayable",
      "type": "function"
    },
    {
      "inputs": [],
      "name": "name",
      "outputs": [
        {
          "internalType": "string",
          "name": "",
          "type": "string"
        }
      ],
      "stateMutability": "view",
      "type": "function"
    },
    {
      "inputs": [
        {
          "internalType": "bytes32",
          "name": "role",
          "type": "bytes32"
        },
        {
          "internalType": "address",
          "name": "account",
          "type": "address"
        }
      ],
      "name": "renounceRole",
      "outputs": [],
      "stateMutability": "nonpayable",
      "type": "function"
    },
    {
      "inputs": [
        {
          "internalType": "bytes32",
          "name": "role",
          "type": "bytes32"
        },
        {
          "internalType": "address",
          "name": "account",
          "type": "address"
        }
      ],
      "name": "revokeRole",
      "outputs": [],
      "stateMutability": "nonpayable",
      "type": "function"
    },
    {
      "inputs": [
        {
          "internalType": "address",
          "name": "student",
          "type": "address"
        },
        {
          "internalType": "uint256",
          "name": "amount",
          "type": "uint256"
        },
        {
          "internalType": "string",
          "name": "reason",
          "type": "string"
        }
      ],
      "name": "rewardStudent",
      "outputs": [],
      "stateMutability": "nonpayable",
      "type": "function"
    },
    {
      "inputs": [
        {
          "internalType": "bytes4",
          "name": "interfaceId",
          "type": "bytes4"
        }
      ],
      "name": "supportsInterface",
      "outputs": [
        {
          "internalType": "bool",
          "name": "",
          "type": "bool"
        }
      ],
      "stateMutability": "view",
      "type": "function"
    },
    {
      "inputs": [],
      "name": "symbol",
      "outputs": [
        {
          "internalType": "string",
          "name": "",
          "type": "string"
        }
      ],
      "stateMutability": "view",
      "type": "function"
    },
    {
      "inputs": [],
      "name": "totalSupply",
      "outputs": [
        {
          "internalType": "uint256",
          "name": "",
          "type": "uint256"
        }
      ],
      "stateMutability": "view",
      "type": "function"
    },
    {
      "inputs": [
        {
          "internalType": "address",
          "name": "to",
          "type": "address"
        },
        {
          "internalType": "uint256",
          "name": "amount",
          "type": "uint256"
        }
      ],
      "name": "transfer",
      "outputs": [
        {
          "internalType": "bool",
          "name": "",
          "type": "bool"
        }
      ],
      "stateMutability": "nonpayable",
      "type": "function"
    },
    {
      "inputs": [
        {
          "internalType": "address",
          "name": "from",
          "type": "address"
        },
        {
          "internalType": "address",
          "name": "to",
          "type": "address"
        },
        {
          "internalType": "uint256",
          "name": "amount",
          "type": "uint256"
        }
      ],
      "name": "transferFrom",
      "outputs": [
        {
          "internalType": "bool",
          "name": "",
          "type": "bool"
        }
      ],
      "stateMutability": "nonpayable",
      "type": "function"
    }
  ],
  "bytecode": "0x60806040523480156200001157600080fd5b506040518060400160405280600a81526020017f43616d707573436f696e000000000000000000000000000000000000000000008152506040518060400160405280600481526020017f43414d500000000000000000000000000000000000000000000000000000000081525081600390816200008f91906200068f565b508060049081620000a191906200068f565b505050620000b96000801b336200013060201b60201c565b620000eb7ff3f9cfff7b46f415da5a492b1718971da203f87c6aae9299e7b408eb83ef8bee336200013060201b60201c565b6200012a33620001006200022260201b60201c565b600a6200010e919062000906565b620f42406200011e919062000957565b6200022b60201b60201c565b62000a8e565b6200014282826200039860201b60201c565b6200021e5760016005600084815260200190815260200160002060000160008373ffffffffffffffffffffffffffffffffffffffff1673ffffffffffffffffffffffffffffffffffffffff16815260200190815260200160002060006101000a81548160ff021916908315150217905550620001c36200040360201b60201c565b73ffffffffffffffffffffffffffffffffffffffff168173ffffffffffffffffffffffffffffffffffffffff16837f2f8788117e7eff1d82e926ec794901d17c78024a50270940304540a733656f0d60405160405180910390a45b5050565b60006012905090565b600073ffffffffffffffffffffffffffffffffffffffff168273ffffffffffffffffffffffffffffffffffffffff16036200029d576040517f08c379a0000000000000000000000000000000000000000000000000000000008152600401620002949062000a03565b60405180910390fd5b620002b1600083836200040b60201b60201c565b8060026000828254620002c5919062000a25565b92505081905550806000808473ffffffffffffffffffffffffffffffffffffffff1673ffffffffffffffffffffffffffffffffffffffff168152602001908152602001600020600082825401925050819055508173ffffffffffffffffffffffffffffffffffffffff16600073ffffffffffffffffffffffffffffffffffffffff167fddf252ad1be2c89b69c2b068fc378daa952ba7f163c4a11628f55a4df523b3ef8360405162000378919062000a71565b60405180910390a362000394600083836200041060201b60201c565b5050565b60006005600084815260200190815260200160002060000160008373ffffffffffffffffffffffffffffffffffffffff1673ffffffffffffffffffffffffffffffffffffffff16815260200190815260200160002060009054906101000a900460ff16905092915050565b600033905090565b505050565b505050565b600081519050919050565b7f4e487b7100000000000000000000000000000000000000000000000000000000600052604160045260246000fd5b7f4e487b7100000000000000000000000000000000000000000000000000000000600052602260045260246000fd5b600060028204905060018216806200049757607f821691505b602082108103620004ad57620004ac6200044f565b5b50919050565b60008190508160005260206000209050919050565b60006020601f8301049050919050565b600082821b905092915050565b600060088302620005177fffffffffffffffffffffffffffffffffffffffffffffffffffffffffffffffff82620004d8565b620005238683620004d8565b95508019841693508086168417925050509392505050565b6000819050919050565b6000819050919050565b6000620005706200056a62000564846200053b565b62000545565b6200053b565b9050919050565b6000819050919050565b6200058c836200054f565b620005a46200059b8262000577565b848454620004e5565b825550505050565b600090565b620005bb620005ac565b620005c881848462000581565b505050565b5b81811015620005f057620005e4600082620005b1565b600181019050620005ce565b5050565b601f8211156200063f576200060981620004b3565b6200061484620004c8565b8101602085101562000624578190505b6200063c6200063385620004c8565b830182620005cd565b50505b505050565b600082821c905092915050565b6000620006646000198460080262000644565b1980831691505092915050565b60006200067f838362000651565b9150826002028217905092915050565b6200069a8262000415565b67ffffffffffffffff811115620006b657620006b562000420565b5b620006c282546200047e565b620006cf828285620005f4565b600060209050601f831160018114620007075760008415620006f2578287015190505b620006fe858262000671565b8655506200076e565b601f1984166200071786620004b3565b60005b8281101562000741578489015182556001820191506020850194506020810190506200071a565b868310156200076157848901516200075d601f89168262000651565b8355505b6001600288020188555050505b505050505050565b7f4e487b7100000000000000000000000000000000000000000000000000000000600052601160045260246000fd5b60008160011c9050919050565b6000808291508390505b60018511156200080457808604811115620007dc57620007db62000776565b5b6001851615620007ec5780820291505b8081029050620007fc85620007a5565b9450620007bc565b94509492505050565b6000826200081f5760019050620008f2565b816200082f5760009050620008f2565b8160018114620008485760028114620008535762000889565b6001915050620008f2565b60ff84111562000868576200086762000776565b5b8360020a91508482111562000882576200088162000776565b5b50620008f2565b5060208310610133831016604e8410600b8410161715620008c35782820a905083811115620008bd57620008bc62000776565b5b620008f2565b620008d28484846001620007b2565b92509050818404811115620008ec57620008eb62000776565b5b81810290505b9392505050565b600060ff82169050919050565b600062000913826200053b565b91506200092083620008f9565b92506200094f7fffffffffffffffffffffffffffffffffffffffffffffffffffffffffffffffff84846200080d565b905092915050565b600062000964826200053b565b915062000971836200053b565b925082820262000981816200053b565b915082820484148315176200099b576200099a62000776565b5b5092915050565b600082825260208201905092915050565b7f45524332303a206d696e7420746f20746865207a65726f206164647265737300600082015250565b6000620009eb601f83620009a2565b9150620009f882620009b3565b602082019050919050565b6000602082019050818103600083015262000a1e81620009dc565b9050919050565b600062000a32826200053b565b915062000a3f836200053b565b925082820190508082111562000a5a5762000a5962000776565b5b92915050565b62000a6b816200053b565b82525050565b600060208201905062000a88600083018462000a60565b92915050565b61218f8062000a9e6000396000f3fe608060405234801561001057600080fd5b506004361061012c5760003560e01c80636fe3ceb8116100ad578063a457c2d711610071578063a457c2d71461036d578063a9059cbb1461039d578063b69bee54146103cd578063d547741f146103e9578063dd62ed3e146104055761012c565b80636fe3ceb8146102b357806370a08231146102d157806391d148541461030157806395d89b4114610331578063a217fddf1461034f5761012c565b8063248a9ca3116100f4578063248a9ca3146101fd5780632f2ff15d1461022d578063313ce5671461024957806336568abe1461026757806339509351146102835761012c565b806301ffc9a71461013157806306fdde0314610161578063095ea7b31461017f57806318160ddd146101af57806323b872dd146101cd575b600080fd5b61014b6004803603810190610146919061146d565b610435565b60405161015891906114b5565b60405180910390f35b6101696104af565b6040516101769190611560565b60405180910390f35b61019960048036038101906101949190611616565b610541565b6040516101a691906114b5565b60405180910390f35b6101b7610564565b6040516101c49190611665565b60405180910390f35b6101e760048036038101906101e29190611680565b61056e565b6040516101f491906114b5565b60405180910390f35b61021760048036038101906102129190611709565b61059d565b6040516102249190611745565b60405180910390f35b61024760048036038101906102429190611760565b6105bd565b005b6102516105de565b60405161025e91906117bc565b60405180910390f35b610281600480360381019061027c9190611760565b6105e7565b005b61029d60048036038101906102989190611616565b61066a565b6040516102aa91906114b5565b60405180910390f35b6102bb6106a1565b6040516102c89190611745565b60405180910390f35b6102eb60048036038101906102e691906117d7565b6106c5565b6040516102f89190611665565b60405180910390f35b61031b60048036038101906103169190611760565b61070d565b60405161032891906114b5565b60405180910390f35b610339610778565b6040516103469190611560565b60405180910390f35b61035761080a565b6040516103649190611745565b60405180910390f35b61038760048036038101906103829190611616565b610811565b60405161039491906114b5565b60405180910390f35b6103b760048036038101906103b29190611616565b610888565b6040516103c491906114b5565b60405180910390f35b6103e760048036038101906103e29190611939565b6108ab565b005b61040360048036038101906103fe9190611760565b61094d565b005b61041f600480360381019061041a91906119a8565b61096e565b60405161042c9190611665565b60405180910390f35b60007f7965db0b000000000000000000000000000000000000000000000000000000007bffffffffffffffffffffffffffffffffffffffffffffffffffffffff1916827bffffffffffffffffffffffffffffffffffffffffffffffffffffffff191614806104a857506104a7826109f5565b5b9050919050565b6060600380546104be90611a17565b80601f01602080910402602001604051908101604052809291908181526020018280546104ea90611a17565b80156105375780601f1061050c57610100808354040283529160200191610537565b820191906000526020600020905b81548152906001019060200180831161051a57829003601f168201915b5050505050905090565b60008061054c610a5f565b9050610559818585610a67565b600191505092915050565b6000600254905090565b600080610579610a5f565b9050610586858285610c30565b610591858585610cbc565b60019150509392505050565b600060056000838152602001908152602001600020600101549050919050565b6105c68261059d565b6105cf81610f32565b6105d98383610f46565b505050565b60006012905090565b6105ef610a5f565b73ffffffffffffffffffffffffffffffffffffffff168173ffffffffffffffffffffffffffffffffffffffff161461065c576040517f08c379a000000000000000000000000000000000000000000000000000000000815260040161065390611aba565b60405180910390fd5b6106668282611027565b5050565b600080610675610a5f565b9050610696818585610687858961096e565b6106919190611b09565b610a67565b600191505092915050565b7ff3f9cfff7b46f415da5a492b1718971da203f87c6aae9299e7b408eb83ef8bee81565b60008060008373ffffffffffffffffffffffffffffffffffffffff1673ffffffffffffffffffffffffffffffffffffffff168152602001908152602001600020549050919050565b60006005600084815260200190815260200160002060000160008373ffffffffffffffffffffffffffffffffffffffff1673ffffffffffffffffffffffffffffffffffffffff16815260200190815260200160002060009054906101000a900460ff16905092915050565b60606004805461078790611a17565b80601f01602080910402602001604051908101604052809291908181526020018280546107b390611a17565b80156108005780601f106107d557610100808354040283529160200191610800565b820191906000526020600020905b8154815290600101906020018083116107e357829003601f168201915b5050505050905090565b6000801b81565b60008061081c610a5f565b9050600061082a828661096e565b90508381101561086f576040517f08c379a000000000000000000000000000000000000000000000000000000000815260040161086690611baf565b60405180910390fd5b61087c8286868403610a67565b60019250505092915050565b600080610893610a5f565b90506108a0818585610cbc565b600191505092915050565b7ff3f9cfff7b46f415da5a492b1718971da203f87c6aae9299e7b408eb83ef8bee6108d581610f32565b6108e0338585610cbc565b8373ffffffffffffffffffffffffffffffffffffffff163373ffffffffffffffffffffffffffffffffffffffff167f9065755b4b3c7b8372403d2da334fb1ea98ef847612b1c0db818439675a789ae858560405161093f929190611bcf565b60405180910390a350505050565b6109568261059d565b61095f81610f32565b6109698383611027565b505050565b6000600160008473ffffffffffffffffffffffffffffffffffffffff1673ffffffffffffffffffffffffffffffffffffffff16815260200190815260200160002060008373ffffffffffffffffffffffffffffffffffffffff1673ffffffffffffffffffffffffffffffffffffffff16815260200190815260200160002054905092915050565b60007f01ffc9a7000000000000000000000000000000000000000000000000000000007bffffffffffffffffffffffffffffffffffffffffffffffffffffffff1916827bffffffffffffffffffffffffffffffffffffffffffffffffffffffff1916149050919050565b600033905090565b600073ffffffffffffffffffffffffffffffffffffffff168373ffffffffffffffffffffffffffffffffffffffff1603610ad6576040517f08c379a0000000000000000000000000000000000000000000000000000000008152600401610acd90611c71565b60405180910390fd5b600073ffffffffffffffffffffffffffffffffffffffff168273ffffffffffffffffffffffffffffffffffffffff1603610b45576040517f08c379a0000000000000000000000000000000000000000000000000000000008152600401610b3c90611d03565b60405180910390fd5b80600160008573ffffffffffffffffffffffffffffffffffffffff1673ffffffffffffffffffffffffffffffffffffffff16815260200190815260200160002060008473ffffffffffffffffffffffffffffffffffffffff1673ffffffffffffffffffffffffffffffffffffffff168152602001908152602001600020819055508173ffffffffffffffffffffffffffffffffffffffff168373ffffffffffffffffffffffffffffffffffffffff167f8c5be1e5ebec7d5bd14f71427d1e84f3dd0314c0f7b2291e5b200ac8c7c3b92583604051610c239190611665565b60405180910390a3505050565b6000610c3c848461096e565b90507fffffffffffffffffffffffffffffffffffffffffffffffffffffffffffffffff8114610cb65781811015610ca8576040517f08c379a0000000000000000000000000000000000000000000000000000000008152600401610c9f90611d6f565b60405180910390fd5b610cb58484848403610a67565b5b50505050565b600073ffffffffffffffffffffffffffffffffffffffff168373ffffffffffffffffffffffffffffffffffffffff1603610d2b576040517f08c379a0000000000000000000000000000000000000000000000000000000008152600401610d2290611e01565b60405180910390fd5b600073ffffffffffffffffffffffffffffffffffffffff168273ffffffffffffffffffffffffffffffffffffffff1603610d9a576040517f08c379a0000000000000000000000000000000000000000000000000000000008152600401610d9190611e93565b60405180910390fd5b610da5838383611109565b60008060008573ffffffffffffffffffffffffffffffffffffffff1673ffffffffffffffffffffffffffffffffffffffff16815260200190815260200160002054905081811015610e2b576040517f08c379a0000000000000000000000000000000000000000000000000000000008152600401610e2290611f25565b60405180910390fd5b8181036000808673ffffffffffffffffffffffffffffffffffffffff1673ffffffffffffffffffffffffffffffffffffffff16815260200190815260200160002081905550816000808573ffffffffffffffffffffffffffffffffffffffff1673ffffffffffffffffffffffffffffffffffffffff168152602001908152602001600020600082825401925050819055508273ffffffffffffffffffffffffffffffffffffffff168473ffffffffffffffffffffffffffffffffffffffff167fddf252ad1be2c89b69c2b068fc378daa952ba7f163c4a11628f55a4df523b3ef84604051610f199190611665565b60405180910390a3610f2c84848461110e565b50505050565b610f4381610f3e610a5f565b611113565b50565b610f50828261070d565b6110235760016005600084815260200190815260200160002060000160008373ffffffffffffffffffffffffffffffffffffffff1673ffffffffffffffffffffffffffffffffffffffff16815260200190815260200160002060006101000a81548160ff021916908315150217905550610fc8610a5f565b73ffffffffffffffffffffffffffffffffffffffff168173ffffffffffffffffffffffffffffffffffffffff16837f2f8788117e7eff1d82e926ec794901d17c78024a50270940304540a733656f0d60405160405180910390a45b5050565b611031828261070d565b156111055760006005600084815260200190815260200160002060000160008373ffffffffffffffffffffffffffffffffffffffff1673ffffffffffffffffffffffffffffffffffffffff16815260200190815260200160002060006101000a81548160ff0219169083151502179055506110aa610a5f565b73ffffffffffffffffffffffffffffffffffffffff168173ffffffffffffffffffffffffffffffffffffffff16837ff6391f5c32d9c69d2a47ea670b442974b53935d1edc7fd64eb21e047a839171b60405160405180910390a45b5050565b505050565b505050565b61111d828261070d565b6111945761112a81611198565b6111388360001c60206111c5565b604051602001611149929190612019565b6040516020818303038152906040526040517f08c379a000000000000000000000000000000000000000000000000000000000815260040161118b9190611560565b60405180910390fd5b5050565b60606111be8273ffffffffffffffffffffffffffffffffffffffff16601460ff166111c5565b9050919050565b6060600060028360026111d89190612053565b6111e29190611b09565b67ffffffffffffffff8111156111fb576111fa61180e565b5b6040519080825280601f01601f19166020018201604052801561122d5781602001600182028036833780820191505090505b5090507f30000000000000000000000000000000000000000000000000000000000000008160008151811061126557611264612095565b5b60200101907effffffffffffffffffffffffffffffffffffffffffffffffffffffffffffff1916908160001a9053507f7800000000000000000000000000000000000000000000000000000000000000816001815181106112c9576112c8612095565b5b60200101907effffffffffffffffffffffffffffffffffffffffffffffffffffffffffffff1916908160001a905350600060018460026113099190612053565b6113139190611b09565b90505b60018111156113b3577f3031323334353637383961626364656600000000000000000000000000000000600f86166010811061135557611354612095565b5b1a60f81b82828151811061136c5761136b612095565b5b60200101907effffffffffffffffffffffffffffffffffffffffffffffffffffffffffffff1916908160001a905350600485901c9450806113ac906120c4565b9050611316565b50600084146113f7576040517f08c379a00000000000000000000000000000000000000000000000000000000081526004016113ee90612139565b60405180910390fd5b8091505092915050565b6000604051905090565b600080fd5b600080fd5b60007fffffffff0000000000000000000000000000000000000000000000000000000082169050919050565b61144a81611415565b811461145557600080fd5b50565b60008135905061146781611441565b92915050565b6000602082840312156114835761148261140b565b5b600061149184828501611458565b91505092915050565b60008115159050919050565b6114af8161149a565b82525050565b60006020820190506114ca60008301846114a6565b92915050565b600081519050919050565b600082825260208201905092915050565b60005b8381101561150a5780820151818401526020810190506114ef565b60008484015250505050565b6000601f19601f8301169050919050565b6000611532826114d0565b61153c81856114db565b935061154c8185602086016114ec565b61155581611516565b840191505092915050565b6000602082019050818103600083015261157a8184611527565b905092915050565b600073ffffffffffffffffffffffffffffffffffffffff82169050919050565b60006115ad82611582565b9050919050565b6115bd816115a2565b81146115c857600080fd5b50565b6000813590506115da816115b4565b92915050565b6000819050919050565b6115f3816115e0565b81146115fe57600080fd5b50565b600081359050611610816115ea565b92915050565b6000806040838503121561162d5761162c61140b565b5b600061163b858286016115cb565b925050602061164c85828601611601565b9150509250929050565b61165f816115e0565b82525050565b600060208201905061167a6000830184611656565b92915050565b6000806000606084860312156116995761169861140b565b5b60006116a7868287016115cb565b93505060206116b8868287016115cb565b92505060406116c986828701611601565b9150509250925092565b6000819050919050565b6116e6816116d3565b81146116f157600080fd5b50565b600081359050611703816116dd565b92915050565b60006020828403121561171f5761171e61140b565b5b600061172d848285016116f4565b91505092915050565b61173f816116d3565b82525050565b600060208201905061175a6000830184611736565b92915050565b600080604083850312156117775761177661140b565b5b6000611785858286016116f4565b9250506020611796858286016115cb565b9150509250929050565b600060ff82169050919050565b6117b6816117a0565b82525050565b60006020820190506117d160008301846117ad565b92915050565b6000602082840312156117ed576117ec61140b565b5b60006117fb848285016115cb565b91505092915050565b600080fd5b600080fd5b7f4e487b7100000000000000000000000000000000000000000000000000000000600052604160045260246000fd5b61184682611516565b810181811067ffffffffffffffff821117156118655761186461180e565b5b80604052505050565b6000611878611401565b9050611884828261183d565b919050565b600067ffffffffffffffff8211156118a4576118a361180e565b5b6118ad82611516565b9050602081019050919050565b82818337600083830152505050565b60006118dc6118d784611889565b61186e565b9050828152602081018484840111156118f8576118f7611809565b5b6119038482856118ba565b509392505050565b600082601f8301126119205761191f611804565b5b81356119308482602086016118c9565b91505092915050565b6000806000606084860312156119525761195161140b565b5b6000611960868287016115cb565b935050602061197186828701611601565b925050604084013567ffffffffffffffff81111561199257611991611410565b5b61199e8682870161190b565b9150509250925092565b600080604083850312156119bf576119be61140b565b5b60006119cd858286016115cb565b92505060206119de858286016115cb565b9150509250929050565b7f4e487b7100000000000000000000000000000000000000000000000000000000600052602260045260246000fd5b60006002820490506001821680611a2f57607f821691505b602082108103611a4257611a416119e8565b5b50919050565b7f416363657373436f6e74726f6c3a2063616e206f6e6c792072656e6f756e636560008201527f20726f6c657320666f722073656c660000000000000000000000000000000000602082015250565b6000611aa4602f836114db565b9150611aaf82611a48565b604082019050919050565b60006020820190508181036000830152611ad381611a97565b9050919050565b7f4e487b7100000000000000000000000000000000000000000000000000000000600052601160045260246000fd5b6000611b14826115e0565b9150611b1f836115e0565b9250828201905080821115611b3757611b36611ada565b5b92915050565b7f45524332303a2064656372656173656420616c6c6f77616e63652062656c6f7760008201527f207a65726f000000000000000000000000000000000000000000000000000000602082015250565b6000611b996025836114db565b9150611ba482611b3d565b604082019050919050565b60006020820190508181036000830152611bc881611b8c565b9050919050565b6000604082019050611be46000830185611656565b8181036020830152611bf68184611527565b90509392505050565b7f45524332303a20617070726f76652066726f6d20746865207a65726f2061646460008201527f7265737300000000000000000000000000000000000000000000000000000000602082015250565b6000611c5b6024836114db565b9150611c6682611bff565b604082019050919050565b60006020820190508181036000830152611c8a81611c4e565b9050919050565b7f45524332303a20617070726f766520746f20746865207a65726f20616464726560008201527f7373000000000000000000000000000000000000000000000000000000000000602082015250565b6000611ced6022836114db565b9150611cf882611c91565b604082019050919050565b60006020820190508181036000830152611d1c81611ce0565b9050919050565b7f45524332303a20696e73756666696369656e7420616c6c6f77616e6365000000600082015250565b6000611d59601d836114db565b9150611d6482611d23565b602082019050919050565b60006020820190508181036000830152611d8881611d4c565b9050919050565b7f45524332303a207472616e736665722066726f6d20746865207a65726f20616460008201527f6472657373000000000000000000000000000000000000000000000000000000602082015250565b6000611deb6025836114db565b9150611df682611d8f565b604082019050919050565b60006020820190508181036000830152611e1a81611dde565b9050919050565b7f45524332303a207472616e7366657220746f20746865207a65726f206164647260008201527f6573730000000000000000000000000000000000000000000000000000000000602082015250565b6000611e7d6023836114db565b9150611e8882611e21565b604082019050919050565b60006020820190508181036000830152611eac81611e70565b9050919050565b7f45524332303a207472616e7366657220616d6f756e742065786365656473206260008201527f616c616e63650000000000000000000000000000000000000000000000000000602082015250565b6000611f0f6026836114db565b9150611f1a82611eb3565b604082019050919050565b60006020820190508181036000830152611f3e81611f02565b9050919050565b600081905092915050565b7f416363657373436f6e74726f6c3a206163636f756e7420000000000000000000600082015250565b6000611f86601783611f45565b9150611f9182611f50565b601782019050919050565b6000611fa7826114d0565b611fb18185611f45565b9350611fc18185602086016114ec565b80840191505092915050565b7f206973206d697373696e6720726f6c6520000000000000000000000000000000600082015250565b6000612003601183611f45565b915061200e82611fcd565b601182019050919050565b600061202482611f79565b91506120308285611f9c565b915061203b82611ff6565b91506120478284611f9c565b91508190509392505050565b600061205e826115e0565b9150612069836115e0565b9250828202612077816115e0565b9150828204841483151761208e5761208d611ada565b5b5092915050565b7f4e487b7100000000000000000000000000000000000000000000000000000000600052603260045260246000fd5b60006120cf826115e0565b9150600082036120e2576120e1611ada565b5b600182039050919050565b7f537472696e67733a20686578206c656e67746820696e73756666696369656e74600082015250565b60006121236020836114db565b915061212e826120ed565b602082019050919050565b6000602082019050818103600083015261215281612116565b905091905056fea26469706673582212206fd33cd8b1f2cafb9f32838ff56e5241225cc07d5dbe05e7d83c7afaf65b7c7564736f6c63430008130033",
  "linkReferences": {},
  "deployedLinkReferences": {}
}